:020000040000FA
:06000000C1EF00F0120048
:020006000000F8
:08000800D9CFE6FFE1CFD9FFDB
:10001000020EE1269568936A8A6A8350DF6EDFCF0D
:10002000E6FF15D8E552E76E010EE7CFDBFFDB50A8
:1000300002E08A6801D08A6AF0D7020EE15C02E22F
:10004000E16AE552E16EE552E7CFD9FF1200D9CF60
:10005000E6FFE1CFD9FF030EE126DF6AFE0EDB509B
:10006000E76E010EE7CFDBFF020EDB6A080EF36ED0
:10007000020EDBCFF4FFF350F45C10E2DF9EDF46AC
:10008000FE0EDB50010BDF12FE0EDBCFF3FFF39011
:10009000F342F3CFDBFF020EDB2AE8D7010EDB5081
:1000A000DF5C02E0000E01D0010E026E030EE15C87
:1000B00003E200D0E16AE552E16E0250E552E7CF7B
:0400C000D9FF120052
:0C00C400060EF66E000EF76E000EF86ED1
:1000D00000010900F550856F0900F550866F03E1B6
:1000E000856701D03DD00900F550806F0900F550BB
:1000F000816F0900F550826F09000900F550E96E23
:100100000900F550EA6E090009000900F550836FF7
:100110000900F550846F09000900F6CF87F0F7CF8A
:1001200088F0F8CF89F080C0F6FF81C0F7FF82C069
:10013000F8FF0001835302E1845307E00900F55002
:10014000EE6E8307F8E28407F9D787C0F6FF88C010
:10015000F7FF89C0F8FF00018507000E865BBFD757
:0201600012008B
:0E016200000EF36E00EE00F0060E01D8120043
:10017000EA6002D0EE6AFCD7F350E9601200EE6A42
:02018000FCD7AA
:0E01820015EE00F025EE00F0F86A019C62EC2C
:0E01900000F0CFEC00F004EC00F0FBD7120002
:02019E0012004D
:020000040030CA
:0100010022DC
:010002000EEF
:010003000EEE
:010006008178
:00000001FF
