:020000040000FA
:0400000006EF00F017
:020004000000FA
:0800080057EF00F0816A806AE5
:10001000030E926EF00E936E31EC00F0F28EF28CC5
:10002000F18CF18AF086F288818434EC00F08194BE
:1000300081823CEC00F08192818044EC00F0819060
:1000400014EF00F0818634EC00F0819614EF00F09C
:10005000818081928194818680B02CEF00F014EF32
:1000600000F0870ED56E1200500E216E4CEC00F0A1
:10007000212E36EF00F01200300E216E4CEC00F015
:10008000212E3EEF00F01200400E216E4CEC00F0ED
:10009000212E46EF00F01200C20ED76EF70ED66E7C
:1000A000F294D58EF2A452EF00F0F2941200F2B264
:1000B00028EF00F0F0B022EF00F0F292F090100084
:00000001FF
